{
  "transactions": [
    {
      "hash": "0xf754e25ed81ea4fadac36bf2e13511d7d8528b8a8fd4de7451f972910c841a97",
      "transactionType": "CALL",
      "contractName": null,
      "contractAddress": "0x772f2afef8f829000305357adec67d31f5ce579d",
      "function": "transfer(address,uint256)",
      "arguments": [
        "0x0000000000000000000000000000000000000000",
        "21"
      ],
      "transaction": {
        "from": "0xa86ea1be0a43ea977dd7489c7c91247b1a7bc50b",
        "to": "0x772f2afef8f829000305357adec67d31f5ce579d",
        "gas": "0x107d6",
        "value": "0x0",
        "input": "0xa9059cbb00000000000000000000000000000000000000000000000000000000000000000000000000000000000000000000000000000000000000000000000000000015",
        "nonce": "0x1d",
        "chainId": "0xaa36a7",
        "accessList": null,
        "type": null
      },
      "additionalContracts": [],
      "isFixedGasLimit": false
    }
  ],
  "receipts": [
    {
      "status": "0x1",
      "cumulativeGasUsed": "0x80f864",
      "logs": [],
      "logsBloom": "0x00000000000000000000000000000000000000000000000000000000000000000000000000000000000000000000000000000000000000000000000000000000000000000000000000000000000000000000000000000000000000000000000000000000000000000000000000000000000000000000000000000000000000000000000000000000000000000000000000000000000000000000000000000000000000000000000000000000000000000000000000000000000000000000000000000000000000000000000000000000000000000000000000000000000000000000000000000000000000000000000000000000000000000000000000000000",
      "type": "0x2",
      "transactionHash": "0xf754e25ed81ea4fadac36bf2e13511d7d8528b8a8fd4de7451f972910c841a97",
      "transactionIndex": "0x4f",
      "blockHash": "0xfda7547012db1dc0efe4efe510b3c7b8519003badbb3a1459ac75d5cbf3a970b",
      "blockNumber": "0x57c945",
      "gasUsed": "0xbf04",
      "effectiveGasPrice": "0x2b1f3901",
      "from": "0xa86ea1be0a43ea977dd7489c7c91247b1a7bc50b",
      "to": "0x772f2afef8f829000305357adec67d31f5ce579d",
      "contractAddress": null
    }
  ],
  "libraries": [],
  "pending": [],
  "returns": {},
  "timestamp": 1713790568,
  "chain": 11155111,
  "commit": "15f1f42"
}